:020000040800F2
:10000000200B0020F9010008ED130008E51100089D
:10001000E9130008B502000895150008000000006B
:10002000000000000000000000000000151500089E
:10003000B902000800000000F11300088D15000847
:10004000130200081302000813020008130200083C
:100050001302000813020008BD0200081302000882
:10006000130200081302000813020008130200081C
:10007000130200081302000813020008130200080C
:1000800013020008130200081302000813020008FC
:1000900013020008130200081302000813020008EC
:1000A00013020008130200081302000813020008DC
:1000B00013020008130200081302000813020008CC
:1000C00013020008130200081302000813020008BC
:1000D00013020008130200081302000813020008AC
:1000E000130200081302000813020008130200089C
:1000F000130200081302000813020008130200088C
:10010000130200081302000813020008130200087B
:10011000130200081302000813020008130200086B
:10012000130200081302000813020008130200085B
:1001300000F002F800F050F814A696E8000CB24463
:10014000B344DA4501D100F047F8BAE80F000FA632
:1001500096E83000A5EB040504EB0607AAEB0704BC
:10016000A7F101074FEA15154FEA3414A4F1010471
:10017000AC4201D300F030F813F0010F18BFFB1AA6
:1001800043F0010300F001F8DBE71847EC20000022
:100190000C210000103A24BF78C878C1FAD8520761
:1001A00024BF30C830C144BF04680C6070470000F1
:1001B000704700000023002400250026103A28BFC5
:1001C00078C1FBD8520728BF30C148BF0B607047C9
:1001D0001FB51FBD10B510BD00F031F81146FFF777
:1001E000F7FF01F043FA00F04FF803B4FFF7F2FF16
:1001F00003BC00F057F80000094880470948004751
:10020000FEE7FEE7FEE7FEE7FEE7FEE7FEE7FEE7C6
:10021000FEE7FEE704480549054A064B7047000023
:10022000911500083101000820050020200B002056
:100230002007002020070020704770477047754650
:1002400000F02CF8AE4605006946534620F0070042
:10025000854618B020B5FFF7DDFFBDE820404FF020
:1002600000064FF000074FF000084FF0000BAC46BF
:10027000ACE8C009ACE8C009ACE8C009ACE8C0090A
:1002800021F007018D46704710B50446AFF300809A
:100290002046BDE81040FFF7A8BF000000487047A7
:1002A0001000002001491820ABBEFEE72600020026
:1002B00070470000FEE7000070470000012000F0DA
:1002C00073B8000070470000EFF3108072B600BFF3
:1002D000FEE7000070B50446042823D0012C1CD191
:1002E00040F60045C4F201052846012100F05CF902
:1002F00006462846022100F057F94EB350B340F2AB
:100300007000C2F20000C178032200294FF0010101
:1003100018BF04228154002141712046BDE870407D
:1003200001F03AB940F60040C4F20100042100F0A7
:100330003BF90028F1D100F043F940F27001C2F21C
:10034000000188602046BDE8704001F025B900BF7B
:100350000028D4D040F27000C2F20000417905229A
:1003600000294FF0010118BF062281540021C170FD
:100370002046BDE8704001F00FB90000B0B504465A
:1003800000F01EF9054640F20000C2F200000078BD
:10039000611C18BF044400BF00F012F9401BA042CA
:1003A000FAD3B0BDFFF796BF40F21441C4F2010189
:1003B0000A68024214BF08607047FFF7F3BF0000ED
:1003C0002DE9F04F82B00E68002E00F0E980A0F118
:1003D000804241F6004540F20043A2F58432C4F267
:1003E00001050624C4F201034FEAB227A84208BF60
:1003F00005244FF0000E4FF001080F254FF0000AC2
:100400004FF0000B052F38BF4FEAB224009408E0EC
:100410000E680AF1010A36FA0AF20EF1040E00F033
:10042000BF8008FA0AFC16EA0C09F1D04E684FF6B4
:10043000FF72C1F21002964212DC122E56D8DFE88B
:1004400006F0350B4D49555555555555555555558E
:1004500055555545510000BFD1F80CB046E000BFDE
:100460004FF6FF72C1F2210296420FDC0022C1F268
:10047000110296421AD00022C1F21202964215D001
:100480000022C1F22102964210D02FE00022C1F2D8
:10049000220296420AD00022C1F23102964205D0D1
:1004A0000022C1F23202964220D100BF8A684AB1CE
:1004B000012A14BFC0F814C0C0F810C04FF0080BD8
:1004C00014E000BF4FF0040B10E000BFCA6802F157
:1004D000040B0BE04FF0000B08E000BFCA6802F10C
:1004E000080B03E0CA6802F10C0B00BF0246744619
:1004F000B9F5807F24BF0432203C166805FA04F762
:1005000026EA07070BFA04F637431760CA79D206C2
:100510007FF57EAF41F21807C4F202073A684FF642
:10052000084542F001023A603A68CFF6FF7502F0E2
:1005300001020192019A2AF003021A440F2457592A
:100540000EF00C06B440A743009C04FA06F63743AD
:1005500057514E6840F20C44F2029A6854BF22EAA6
:10056000090242EA0902C4F201049A602268B70251
:1005700054BF22EA090242EA090222605A68B7031C
:1005800054BF22EA090242EA09025A600F251A689A
:10059000F70354BF22EA090242EA09021A6037E768
:1005A00002B0BDE8F08F00008068084018BF01204D
:1005B00070470000002A08BF09040161704700006D
:1005C00040F21C50C2F200000068704740F2000088
:1005D00040F21C51C2F20000C2F2000100780A6829
:1005E000104408607047000080B542F20000C4F279
:1005F0000200016841F010010160032000F08CF856
:100600000F2000F005F800F027F8002080BD000062
:1006100070B540F20006C2F2000640F208013278DE
:10062000C2F200014FF47A730968B3FBF2F2044698
:10063000B1FBF2F1084600F00DFD0F2C4FF0010563
:1006400008D838B94FF0FF3021460022002500F0CD
:1006500037F87460284670BD82B041F21800C4F2C9
:1006600002000168022241F001010160016801F00D
:10067000010101910199416841F080514160406858
:1006800000F08050009000980420C4F2010001683E
:1006900062F31A61016002B070470000002848BF91
:1006A000704700F01F01012202FA01F11C2202EA48
:1006B000D0004EF20012CEF20002815070470000CE
:1006C00010B54EF60C5CCEF2000CDCF80030C3F333
:1006D000022E8EF00704042C28BF0424BEF103036D
:1006E0004FF0FF3E0EFA04F438BF0023A1439940B7
:1006F0000EFA03F39A43114300F00F0200F1604336
:100700000901043A03F564436244002848BF02F13A
:100710000C03197010BD00004EF60C51CEF2000112
:100720000A684FF6FF031A4060F30A2242F0806025
:1007300040F0FD7008607047002804BF012070473A
:100740002DE9F04381B042F20008C4F202080446E9
:10075000D8F800000D4600F0070081420CD9D8F807
:10076000000020F007002843C8F80000D8F8000077
:1007700000F00700A8426CD1206841F2040981070B
:10078000C4F2020917D5410705D5D9F8001041F484
:10079000E061C9F80010010705D5D9F8001041F44F
:1007A0006051C9F80010D9F80010A26821F0F001DA
:1007B0001143C9F80010C00742D1D8F8000000F07A
:1007C000070085420CD2D8F8000020F0070028432B
:1007D000C8F80000D8F8000000F00700A84238D19F
:1007E0002068410707D5D9F80010E26821F4E061DC
:1007F0001143C9F80010000708D5D9F80000216995
:1008000020F4605040EAC100C9F80000D9F8002087
:1008100002F00C00082841F20020C0F27A004DD10D
:1008200042F21403C2F38341C0F60003595CD203C1
:1008300038D440F60010C0F23D0048433EE000BF0F
:10084000606859F8041C022808D0012826D18903C1
:1008500006D4012001B0BDE8F08300BF8901F8D5BE
:10086000D9F8001021F003010843C9F80000FFF790
:10087000A7FE064641F28837D9F80000616800F00B
:100880000C00B0EB810F98D0FFF79AFE801BB842A6
:10089000F2D9032001B0BDE8F08300BF8907D8D5A5
:1008A000DEE700BFD9F8002042F21203C2F3404253
:1008B000C0F600039A5C4843B0FBF2F0D9F8001090
:1008C00041F6FA72C1F30311C0F60002515C40F226
:1008D000080220FA01F140F20400C2F200000068B0
:1008E000C2F200021160FFF793FE002001B0BDE8E4
:1008F000F083000040F2080041F20401C2F200005F
:10090000C4F202010068096842F20A02C1F302213E
:10091000C0F60002515CC8407047000040F2080079
:1009200041F20401C2F20000C4F202010068096849
:1009300042F20A02C1F3C221C0F60002515CC84073
:1009400070470000002804BF012070472DE9F041E6
:1009500082B00446007841F20006C007C4F20206E5
:100960000CD0706800F00C00042840F081803068E2
:10097000800303D56068002800F046812078800756
:100980001BD5706810F00C0F09D0706800F00C00D7
:10099000082840F087807068C00300F183803068C9
:1009A000800703D52069012840F02E8130686169F5
:1009B00020F0F80040EAC10030602078000713D42E
:1009C000207840072CD4E569002D00F0188170686C
:1009D00000F00C00082840F0A780012D40F00481B1
:1009E000012002B0BDE8F081A069002800F08480F9
:1009F0000020C4F242200121C0F88014FFF7E0FD7E
:100A0000054600BF706A800700F1B280FFF7D8FD8D
:100A1000401B0228F6D9032002B0BDE8F08100BFD8
:100A2000F0695FEAC00808D4F06940F08050F061D6
:100A3000F06900F080500090009847F20007C4F27F
:100A400000073868C00549D4386840F480703860C1
:100A5000FFF7B6FD054600BF3868C0053ED4FFF776
:100A6000AFFD401B6428F7D9032002B0BDE8F08138
:100A7000706800F00C00082803D17068C0033FF5CF
:100A800076AF61683068002900F00C81B1F5A02FC5
:100A900000F00081B1F5803F40F01A8140F48030D1
:100AA0001CE100BF2069002840F20000C4F242208F
:100AB00000F0888001210160FFF782FD054600BF3C
:100AC000306880073FF572AFFFF77AFD401B0228C0
:100AD000F6D9032002B0BDE8F08100BFE168306ABA
:100AE000002900F09D80052900F09280012940F046
:100AF000AF8040F00100B1E00020C4F242200021AC
:100B0000C0F88014FFF75CFD054600BF706A8007DF
:100B10007FF556AFFFF754FD401B0228F6D903209E
:100B200002B0BDE8F08100BF0027C4F242270020D8
:100B30003866FFF745FD022D05460DD1306880016E
:100B400040F1DE80FFF73CFD401B02284FF0030020
:100B5000F4D902B0BDE8F081306880014FD5FFF7CD
:100B60002FFD401B02284FF00300F5D9F1E700BF2D
:100B700040F20800C2F20000006844F6D351C1F20E
:100B80006201A0FB0101480A019000BF00BF01986B
:100B9000411E002801913FF413AF00BF0198411E90
:100BA000002801913FF40CAF00BF0198411E0028BE
:100BB00001913FF405AF00BF0198411E002801914B
:100BC000E4D1FDE600210160FFF7FAFC054600BF15
:100BD000306880077FF5F1AEFFF7F2FC401B02287A
:100BE0004FF00300F4D9B4E77068216A00F4803252
:100BF0008A4209D1616A00F47010884204D1002051
:100C000002B0BDE8F08100BF012002B0BDE8F08174
:100C100040F004003062306A40F001001EE000BF86
:100C200020F001003062306A20F004003062FFF7EB
:100C3000C7FC054641F28837306A800720D5FFF7A8
:100C4000BFFC401BB8424FF00300F5D981E700BF5D
:100C500020F001003062306A20F004003062FFF7BB
:100C6000AFFC054641F28837306A800708D4FFF7A9
:100C7000A7FC401BB842F7D9032002B0BDE8F081C1
:100C8000B8F1000F3FF59FAEF06920F08050F061A1
:100C900099E600BF40F480203060306840F4803036
:100CA0001CE000BF20F480303060306820F48020E9
:100CB0003060FFF785FC0546306880037FF55EAE47
:100CC000FFF77EFC401B64284FF00300F4D940E797
:100CD00020F480303060306820F480203060FFF7EE
:100CE0006FFC0546306880033FF548AEFFF768FCAF
:100CF000401B6428F6D9032002B0BDE8F08100BF94
:100D0000206AB0F5803F05D17168A26821F40031F6
:100D1000114371607168626A21F4741111430843D0
:100D2000706001203866FFF74BFC04463068800194
:100D30003FF565AFFFF744FC001B02284FF00300AE
:100D4000F4D906E770B528B1416A29B100210161E3
:100D5000142106E0012070BD4168B1F5827F02D008
:100D60001C21002242500026866290F8511029B9B9
:100D700080F85060054600F039F82846022180F8D6
:100D8000511090E82E0002F482720C6803F40443C0
:100D900024F040040C601A4405F4006305691A4409
:100DA00005F0020345691A4405F001038569C46929
:100DB0001A4405F400731A4404F03803046A1A4410
:100DC00004F08003846A1A4304F400531A430A604F
:100DD000042202EA15424A60CA6922F40062CA612A
:100DE0000121466580F85110304670BD80B586B04F
:100DF000016843F60040C4F2000081424FF0000158
:100E0000CDE90411CDE9021102D006B080BD00BFCA
:100E100041F21801C4F202014A6800F5504042F460
:100E200000424A604A6802F400420192019A0A684C
:100E300042F008020A60096801F008010191019975
:100E400028210291022103910321059102A9FFF7B4
:100E5000B7FA06B080BD00002DE9F04182B01D4612
:100E600016460F460446FFF7ABFB94F851100129D4
:100E70000ED18046002F4FF0010018BF002E03D185
:100E800002B0BDE8F08100BF94F85000012803D102
:100E9000022002B0BDE8F081012084F85000032058
:100EA000002184F8510061652763A686E686A16368
:100EB000A187E187A0682164B0F5004F20686164D4
:100EC00007D1016821F040010160016841F48041CF
:100ED00001600168490603D4016841F040010160E6
:100EE0006168731EE268B1FA81F1B3FA83F34909CC
:100EF0005B09B2F5006F41EA030139D131B137F82E
:100F0000021BC1602763E08E0138E086E08E002876
:100F100070D0681C0BD11AE0216B31F8022BC26033
:100F20002163E08E0138E086E08E002862D02068E0
:100F300081688907F0D4FFF743FBA0EB0800A842C3
:100F4000F2D338E0FFF73CFBE08E002852D0206857
:100F500081688907F6D5216B31F8022BC2602163C5
:100F6000E08E0138E086E08E0028F0D142E000BF3C
:100F700039B139780173206B01302063E08E01387C
:100F8000E086E08EB0B3681C0BD123E0216B0978BA
:100F90000173206B01302063E08E0138E086E08E23
:100FA00040B3206881688907F0D4FFF709FBA0EB04
:100FB0000800A842F3D3012084F85100002084F8EF
:100FC0005000032002B0BDE8F08100BFFFF7F8FA3F
:100FD000E08E78B1206881688907F7D5216B0978A0
:100FE0000173206B01302063E08E0138E086E08ED3
:100FF0000028EFD12046022101222B46CDF80080A7
:1010000000F0F8F940B92046802100222B46CDF8A7
:10101000008000F0EFF928B1606D40F020006065BD
:1010200020206065A06838B9002001902068C16860
:101030000191806801900198012084F851000020FE
:1010400084F85000606D002818BF012002B0BDE890
:10105000F0810000411E0020B0EB116F1CBF012089
:1010600070474EF21002CEF2000251604EF623514C
:10107000CEF20001F0230B700721906011607047E1
:10108000002804BF0120704710B5044690F84100C5
:1010900028B9002084F84000204600F063F824209E
:1010A00084F841002068D4E90212C36823F4005395
:1010B000C360036923F440531A430261D4E9042353
:1010C0001143C268194341F20C639A431143C16052
:1010D0004169A26921F44071114343F60002C4F250
:1010E00001029042416103D0FFF704FC02E000BF1F
:1010F000FFF714FCD4E90023192148439900B0FB01
:10110000F1F048F21F5CC5F2EB1CA0FB0C314FF66E
:101110009C734909C0F6FF7301FB0300322303EB04
:101120000010A0FB0C03F02000EA531000EB0110AC
:10113000C3F34311084490601069202120F49040CB
:101140001061506920F02A005061D06840F40050CE
:10115000D0600020606484F8411084F8421060631D
:1011600010BD000070B586B040F60004C4F2010462
:10117000006804F54051002688420596CDE90366D3
:10118000029601D006B070BD41F21800C4F2020010
:10119000016802AD41F480410160016801F48041C1
:1011A00001910199016841F004010160006829463C
:1011B00000F00400019001984FF4007002900220AA
:1011C0000390032005902046FFF7FAF84FF4806063
:1011D000CDE90206204629460496FFF7F1F806B04D
:1011E00070BD0000FEE7000040F27001C2F2000195
:1011F000002200208A70CA700A714A718A71CA710D
:101200008A600A7000F088B910B540F27004C2F22A
:1012100000042078E8B9207901280BD10020207142
:10122000A078013041B20329C8BF0020A070C0B22D
:1012300000F072F9A07901280BD10020A071A078EC
:10124000013841B2002948BF0320A070C0B200F0AD
:1012500063F9A06848B1FFF7B3F9A168401A1528EF
:1012600003D30120E0710020A060E079012818BFBD
:1012700010BD0020E071207850B12078012811D1F4
:1012800000202070A078BDE8104000F045B900BFF4
:10129000A0786070012020706078BDE81040FFF7F2
:1012A00011B800BF10BD00002DE9F04186B0002646
:1012B00041F21800CDE90466CDE90266C4F20200ED
:1012C000016840F6004441F0200101600168C4F269
:1012D000010401F02001019101990168002241F00F
:1012E0000801016001684FF4887801F0080101915C
:1012F0000199016841F00401016000684FF48871B0
:1013000000F00400019001982046FFF753F90520F2
:1013100002900020C1F2210002ADCDE90306204673
:101320002946FFF74DF8022720462946CDE90276E7
:101330000496FFF745F8012003A9C1C120462946BC
:10134000CDF80880FFF73CF8062000210022FFF7C7
:10135000B7F90620FFF7A2F906B0BDE8F08100005A
:1013600080B540F27C0043F6004CC2F20000C4F2AB
:10137000000C4FF482724FF4004300214FF4007EC2
:10138000C0E900C20A22C0E90231C0E90411C0E983
:1013900006E1C0E90811C0E90A12FFF7D3FC0028F2
:1013A00008BF80BDBDE88040FEF78EBF80B540F22B
:1013B000D40043F60001C2F20000C4F20101002390
:1013C0004FF00C0C4FF4E13280E80E00C0E903331B
:1013D000C0E905C3C361FFF753FE002808BF80BD05
:1013E000BDE88040FEF770BFFEE70000FEE70000AA
:1013F000704700002DE9F04381B0089C98461546DF
:101400000E468146FFF7DCF8201A00EB0804FFF7D0
:10141000D7F840F20801C2F200010968C1F3CB31EC
:1014200061430091D9F800108A683240921BB2FAE9
:1014300082F2520995423DD0074618F1010031D0A1
:10144000FFF7BEF8C01BA04238D2009800990028D0
:10145000A1F101010091D9F80010896808BF044684
:1014600001EA0600801BB0FA80F040098542E7D10E
:1014700020E000BF88683040801BB0FA80F040094F
:10148000854217D088683040801BB0FA80F0400950
:1014900085420FD088683040801BB0FA80F0400948
:1014A000854207D088683040801BB0FA80F0400940
:1014B0008542DFD1002001B0BDE8F083D9E9000109
:1014C0004268B1F5827F22F0E00242600BD1D9F888
:1014D0000810B1F5004F02D0B1F5806F03D101685B
:1014E00021F040010160D9F82810B1F5005F07D163
:1014F000016821F400510160016841F4005101606C
:10150000012089F85100002089F85000032001B023
:10151000BDE8F0837047000070B582B0044600203B
:1015200000902E201021202220231026202500F0BC
:10153000AFF942F23622C0F600026C2018211023C7
:10154000009600F0D3F842F25622C0F600020220C4
:1015500018211023009600F0C9F8032C08D807A022
:1015600050F824202E2010212023009500F0BEF8F2
:1015700002B0BDE8704000F0DBBC00BFB021000845
:10158000242000082A210008A4200008FFF71EB824
:1015900070470000FEE70000704700002DE9F04FA3
:1015A00081B040F6004440F21C1640F27C05C4F2C3
:1015B00001044FF0000BC2F20006C2F200050DF16B
:1015C000020A0DF103074FF0000800BF48F0B00019
:1015D0008DF80000204610210022FEF7EBFF284680
:1015E00069460122FF23FFF737FC02208DF8010036
:1015F000204610210022FEF7DDFF28460DF10101F3
:101600000122FF23FFF728FC10208DF8020020465E
:1016100010210022FEF7CEFF284651460122FF236B
:10162000FFF71AFC6FF0070906EB090080F808B015
:10163000007A10218DF8030020460122FEF7BAFF40
:10164000284639460122FF23FFF706FC09F1080965
:10165000B9F57E7FE8D108F10108B8F1080F06F16D
:101660000106B3D101B0BDE8F08F000090B0FEF7E5
:10167000BBFF00240120CDE90B44CDE909440690CD
:101680000A904FF4E0104FF4803102250F9006A825
:10169000CDE90714CDE90D51FFF754F920B1EFF36F
:1016A000108072B6FEE700BF0F20CDE901054FF4B0
:1016B0008060CDE9040401A802210394FFF73CF8FF
:1016C00020B1EFF3108072B6FEE700BFFFF7ECFD2C
:1016D000FFF76CFEFFF744FE00F05CFAFFF75EFFD9
:1016E000FFF782FDFFF790FDFCE700002DE9F04FCA
:1016F00085B00E9F0392002F18BF002B02D105B0BA
:10170000BDE8F08FDA1DD20801925A1E40F21C1C6F
:10171000009203F0030203F0FC0B0026C2F2000C5F
:101720000492029103E000BF0136BE42E7D08D195A
:10173000EAB23F2AF8D83946039B019F4FF00009CF
:1017400006FB07380723A3EBD20223EA0505012392
:1017500003FA05F4009BD5B2032B4DD2049A0F4631
:101760000299002AE0D04FEAD90218F8022009F0C5
:1017700007039A40120609D500EB090252B2002A6B
:1017800004D40CEBC202535D23435355049A012A3F
:10179000CAD009F1010E4FEADE0218F802200EF05D
:1017A00007039A40120609D500EB0E0252B2002A36
:1017B00004D40CEBC202535D23435355049A022A0E
:1017C000B2D009F1020E4FEADE0218F802200EF044
:1017D00007039A401206A7D500EB0E0252B2002A68
:1017E000A2D40CEBC202535D234353559CE700BFC8
:1017F00009F10409CB45B1D04FEAD90E18F80E20F3
:1018000009F00407BA40120609D500EB090252B2EA
:10181000002A04D40CEBC202575D2743575509F147
:10182000010A18F80E200AF00507BA40120609D579
:1018300000EB0A0252B2002A04D40CEBC202575D3C
:101840002743575509F1020218F80E7002F00603FB
:1018500007FA03F31B0608D5024452B2002A04D447
:101860000CEBC202535D2343535509F1030218F8F0
:101870000E3002F00707BB401B06B9D5024452B236
:10188000002AB5D40CEBC202535D23435355AFE796
:101890002DE9F04F86B0002A0492039018BF002B68
:1018A00002D106B0BDE8F08F0F9803F003025C1E72
:1018B000059203F0FC084A1C002801F102004FF0D9
:1018C000000A0192009000F0B18040F21C19E0B2D1
:1018D0004FF0070C4FF0010BC2F20009029004E038
:1018E00004980AF1010A8245DBD0039800EB0A0351
:1018F00058B20028F4D40298DDB203284FF0000358
:1019000040D205980028EBD05E18F7B23F2F0BD8D5
:10191000ACEBD700C0B209EBC5072CEA06023E5C6F
:101920000BFA02F232433A5405980128D8D00198B4
:101930001E18F7B23F2F0BD8ACEBD700C0B209EBA3
:10194000C5072CEA06023E5C0BFA02F232433A5417
:1019500005980228C4D000980344DFB23F2FBFD8B7
:10196000ACEBD7002CEA0302C0B209EBC5031F5C45
:101970000BFA02F23A431A54B2E700BF0433D8B26A
:101980004045BED05C18E6B23F2E0FD904F1010EDF
:101990005FFA8EF63F2E1BD9A61CF7B23F2F27D930
:1019A000E61CF7B23F2FE9D832E000BFACEBD6001F
:1019B000C0B209EBC5072CEA04023E5C0BFA02F246
:1019C00032433A5404F1010E5FFA8EF63F2EE3D80B
:1019D000ACEBD600C0B209EBC5072CEA0E023E5CA8
:1019E0000BFA02F232433A54A61CF7B23F2FD7D873
:1019F000ACEBD700C0B209EBC5072CEA06023E5C8F
:101A00000BFA02F232433A54E61CF7B23F2FB5D834
:101A1000ACEBD700C0B209EBC5072CEA06023E5C6E
:101A20000BFA02F232433A54A8E700BF40F21C1E00
:101A30005FFA84F94FF0070C4FF0010BC2F2000E71
:101A400006E000BF04980AF1010A82453FF429AF7D
:101A5000039800EB0A0358B20028F3D4B9F1030F3E
:101A6000DDB24FF0000441D205980028EAD0631897
:101A7000D8B23F280BD8ACEBD000C0B20EEBC506F5
:101A80002CEA0303325C0BFA03F39A4332540598B1
:101A90000128D7D001982318D8B23F280CD8ACEB36
:101AA000D0002CEA0302C0B20EEBC5031E5C0BFA99
:101AB00002F226EA02021A5405980228C2D00098BF
:101AC0002318D8B23F28BDD8ACEBD0002CEA0302D3
:101AD000C0B20EEBC5031E5C0BFA02F226EA02024C
:101AE0001A54AFE70434E0B24045BDD06318DEB20B
:101AF0003F2E0DD95E1CF0B23F281AD99E1CF0B2C1
:101B00003F2827D90333D8B23F28EBD833E000BFB2
:101B1000ACEBD600C0B20EEBC5062CEA0302375C74
:101B20000BFA02F227EA020232545E1CF0B23F289E
:101B3000E4D8ACEBD0002CEA0602C0B20EEBC5062E
:101B4000375C0BFA02F227EA020232549E1CF0B212
:101B50003F28D7D8ACEBD0002CEA0602C0B20EEB7F
:101B6000C506375C0BFA02F227EA0202325403334D
:101B7000D8B23F28B6D8ACEBD0002CEA0302C0B2F2
:101B80000EEBC5031E5C0BFA02F226EA02021A549F
:101B9000A8E700002DE9F04182B040F60044C4F20D
:101BA000010420464FF480710122FEF703FD4FF43B
:101BB0007A70FEF7E3FB20464FF480710022002686
:101BC000FEF7F8FC4FF47A70FEF7D8FB20464FF48E
:101BD00080710122FEF7EEFC4FF47A70FEF7CEFB27
:101BE000AE208DF807002046102100221027FEF7B6
:101BF000E1FC40F27C05C2F200050DF10701284628
:101C00000122FF23FFF728F92046102100228DF83A
:101C10000760FEF7CFFC0DF1070128460122FF23E4
:101C2000FFF71AF92046102100228DF80770FEF701
:101C3000C1FC0DF1070128460122FF23FFF70CF933
:101C400040272046102100228DF80770FEF7B2FCD5
:101C50000DF1070128460122FF23FFF7FDF881203F
:101C60008DF80700204610210022FEF7A3FC0DF19D
:101C7000070128460122FF23FFF7EEF8CF208DF859
:101C80000700204610210022FEF794FC0DF1070109
:101C900028460122FF23FFF7DFF8A1208DF8070077
:101CA000204610210022FEF785FC0DF10701284691
:101CB0000122FF23FFF7D0F8C0208DF8070020464F
:101CC00010210022FEF776FC0DF1070128460122C3
:101CD000FF23FFF7C1F84FF0A6082046102100228D
:101CE0008DF80780FEF766FC0DF1070128460122FA
:101CF000FF23FFF7B1F8A8208DF807002046102138
:101D00000022FEF757FC0DF1070128460122FF23B0
:101D1000FFF7A2F83F208DF807002046102100228F
:101D2000FEF748FC0DF1070128460122FF23FFF7CB
:101D300093F8D3208DF80700204610210022FEF7EB
:101D400039FC0DF1070128460122FF23FFF784F833
:101D50002046102100228DF80760FEF72BFC0DF1C4
:101D6000070128460122FF23FFF776F8D5208DF8DA
:101D70000700204610210022FEF71CFC0DF1070190
:101D800028460122FF23FFF767F880208DF807001F
:101D9000204610210022FEF70DFC0DF10701284618
:101DA0000122FF23FFF758F8D9208DF807002046BD
:101DB00010210022FEF7FEFB0DF10701284601224B
:101DC000FF23FFF749F8F1208DF807002046102186
:101DD0000022FEF7EFFB0DF1070128460122FF2349
:101DE000FFF73AF8DA208DF807002046102100228C
:101DF000FEF7E0FB0DF1070128460122FF23FFF764
:101E00002BF812208DF80700204610210022FEF743
:101E1000D1FB0DF1070128460122FF23FFF71CF833
:101E2000DB208DF80700204610210022FEF7C2FBC0
:101E30000DF1070128460122FF23FFF70DF8204688
:101E4000102100228DF80770FEF7B4FB0DF1070199
:101E500028460122FF23FEF7FFFF20208DF8070010
:101E6000204610210022FEF7A5FB0DF107012846B0
:101E70000122FF23FEF7F0FF02208DF80700204625
:101E800010210022FEF796FB0DF1070128460122E2
:101E9000FF23FEF7E1FF8D208DF80700204610217B
:101EA0000022FEF787FB0DF1070128460122FF23E0
:101EB000FEF7D2FF14208DF80700204610210022E3
:101EC000FEF778FB0DF1070128460122FF23FEF7FC
:101ED000C3FFA4208DF80700204610210022FEF742
:101EE00069FB0DF1070128460122FF23FEF7B4FF2D
:101EF0002046102100228DF80780FEF75BFB0DF1D4
:101F0000070128460122FF23FEF7A6FFAF208DF828
:101F10000700204610210022FEF74CFB0DF10701BF
:101F200028460122FF23FEF797FF02B0BDE8F081AB
:101F30002DE9F04F81B040F6004440F21C1640F20B
:101F40007C05C4F201044FF0000BC2F20006C2F29D
:101F500000050DF101090DF1020A0DF1030700BFA3
:101F60004BF0B0008DF80000204610210022FEF753
:101F700021FB284669460122FF23FEF76DFF022060
:101F80008DF80100204610210022FEF713FB2846A1
:101F900049460122FF23FEF75FFF10208DF8020063
:101FA000204610210022FEF705FB2846514601225B
:101FB000FF23FEF751FF6FF0070800BF06EB080094
:101FC000007A10218DF8030020460122FEF7F2FA74
:101FD000284639460122FF23FEF73EFF08F1080894
:101FE000B8F57E7FEAD10BF1010BBBF1080F06F1CA
:101FF0000106B5D101B0BDE8F08F0000000000007F
:1020000000000102030406070809000000000102A5
:102010000304010202030405060708090A0B0C0D5C
:102020000E0F101000000000000000000000000073
:10203000007C000000C60000008300000081070053
:1020400001810C8001810840019110400191100034
:10205000019110A0019111C00191194001910780D7
:1020600001910000019100000111000001118000A8
:1020700002188000023C400002424000064260001C
:1020800002424000026E4000023C4000010080001D
:1020900000C30000007E00000000000000000000FF
:1020A000000000007FFFFFFEC00000038000000171
:1020B000800000018001800180018001800080019A
:1020C000800080018000800180008001800080010C
:1020D0008000800180018001800180018002C001B8
:1020E00080042001800420018003C0018003C0011E
:1020F0008000600180003001800010018000180124
:1021000080000801800004018000000180000001BF
:10211000800000018000000180000001C000000379
:102120003FFFFFFE00000000000000000000000074
:1021300000000000000003FFFFC00FFFFFF00C00D5
:1021400000301800001818000018180000181800B7
:1021500000181800001818830318198CCC981888D8
:102160004898188040981880839818818198188220
:1021700000581884085818CC0998180FC7981800E8
:10218000001818000018180000181800001818008F
:1021900000180C0000300FFFFFF003FFFFC000002D
:1021A000000000000000000000000000000000002F
:1021B000000FE000003FFC0000FFFF0003F007C03D
:1021C000078001E00F0000F01E0000783C07E038B7
:1021D000380FF01C7018380E70381C0E60300C0E62
:1021E000E0300C07E0300C07E0300C07E0300C0763
:1021F000E0301C07E0181807E01C3807E00C300638
:10220000700C700E701C380E787C3E1E39E0079CF6
:102210001F8003F81F0000F80F0000F007C003E064
:1022200003E00FC000FFFF00003FFC000007F000CC
:10223000000000000000000008000C000E000F006D
:102240000F800FC00FE00FE00FC00F800F000E00D7
:102250000C0008000000000000100030007000F0CA
:1022600001F003F007F007F003F001F000F0007058
:10227000003000100000000098220008000000203C
:102280001000000094010008A8220008100000209F
:10229000100B0000B4010008010000001000000055
:0822A00000127A0000000000AA
:0400000508000131BD
:00000001FF
