:020000040800F2
:10000000C00800204501000849150008B913000880
:1000100045150008990100089D2400080000000013
:10002000000000000000000000000000A523000800
:10003000ED0100080000000081220008A92300084B
:100040005F0100085F0100085F0100085F01000810
:100050005F0100085F0100085F010008F10100086E
:10006000F90100085F0100085F0100085F01000856
:100070005F0100085F0100085F0100085F010008E0
:100080005F0100085F0100085F0100085F010008D0
:100090005F0100085F0100085F0100085F010008C0
:1000A0005F0100085F0100085F0100085F010008B0
:1000B000B12300085F0100085F0100085F0100082C
:1000C0005F0100085F0100085F0100085F01000890
:1000D0005F0100085F0100085F0100085F01000880
:1000E0005F0100085F0100085F0100085F01000870
:1000F0005F0100085F0100085F0100085F01000860
:100100005F0100085F0100085F0100085F0100084F
:100110005F0100085F0100085F0100085F0100083F
:100120005F0100085F0100085F0100085F0100082F
:10013000DFF80CD000F018F80048004771250008DF
:10014000C00800200648804706480047FEE7FEE753
:10015000FEE7FEE7FEE7FEE7FEE7FEE7FEE7FEE777
:10016000AD230008310100081CB50948009009487A
:1001700001900546009C06E0E06840F0010394E829
:10018000070098471034AC42F6D3FFF7D5FF0000C4
:10019000242C0008442C0008FEE7000040F2130065
:1001A000C2F20000002141708170C170017070477F
:1001B00040F21300C2F200004178013141704178F1
:1001C0003C2910D3002141708278013282708278FC
:1001D0003C2A08D38170C1780131C170C1781829D7
:1001E00024BF0021C17001210170704770470000D9
:1001F000022000F031B80000042000F02DB800000B
:10020000EFF3108072B600BFFEE70000B0B5044601
:1002100000F028F9054640F20000C2F20000007824
:10022000611C18BF044400BF00F01CF9401BA04231
:10023000FAD3B0BD40F210010228C2F2000107D08B
:10024000042818BF7047881C01210170704700BF47
:10025000481C01210170704740F21441C4F20101B1
:100260000A68024214BF08607047FFF7E3BF00004E
:100270002DE9F04F82B00E68002E00F0E980A0F169
:10028000804241F6004540F20043A2F58432C4F2B8
:1002900001050624C4F201034FEAB227A84208BFB1
:1002A00005244FF0000E4FF001080F254FF0000A13
:1002B0004FF0000B052F38BF4FEAB224009408E03E
:1002C0000E680AF1010A36FA0AF20EF1040E00F085
:1002D000BF8008FA0AFC16EA0C09F1D04E684FF606
:1002E000FF72C1F21002964212DC122E56D8DFE8DD
:1002F00006F0350B4D4955555555555555555555E0
:1003000055555545510000BFD1F80CB046E000BF2F
:100310004FF6FF72C1F2210296420FDC0022C1F2B9
:10032000110296421AD00022C1F21202964215D052
:100330000022C1F22102964210D02FE00022C1F229
:10034000220296420AD00022C1F23102964205D022
:100350000022C1F23202964220D100BF8A684AB11F
:10036000012A14BFC0F814C0C0F810C04FF0080B29
:1003700014E000BF4FF0040B10E000BFCA6802F1A8
:10038000040B0BE04FF0000B08E000BFCA6802F15D
:10039000080B03E0CA6802F10C0B00BF024674466A
:1003A000B9F5807F24BF0432203C166805FA04F7B3
:1003B00026EA07070BFA04F637431760CA79D20614
:1003C0007FF57EAF41F21807C4F202073A684FF694
:1003D000084542F001023A603A68CFF6FF7502F034
:1003E00001020192019A2AF003021A440F2457597C
:1003F0000EF00C06B440A743009C04FA06F63743FF
:1004000057514E6840F20C44F2029A6854BF22EAF7
:10041000090242EA0902C4F201049A602268B702A2
:1004200054BF22EA090242EA090222605A68B7036D
:1004300054BF22EA090242EA09025A600F251A68EB
:10044000F70354BF22EA090242EA09021A6037E7B9
:1004500002B0BDE8F08F0000002A08BF0904016166
:100460007047000040F2B840C2F2000000687047D8
:1004700040F2000040F2B841C2F20000C2F20001B6
:1004800000780A68104408607047000080B542F2A6
:100490000000C4F20200016841F010010160032075
:1004A00000F08CF80F2000F005F800F027F800208D
:1004B00080BD000070B540F20006C2F2000640F2B6
:1004C00008013278C2F200014FF47A730968B3FB75
:1004D000F2F20446B1FBF2F1084600F0E5FC0F2C05
:1004E0004FF0010508D838B94FF0FF3021460022FF
:1004F000002500F037F87460284670BD82B041F2E4
:100500001800C4F202000168022241F001010160FA
:10051000016801F0010101910199416841F08051A8
:100520004160406800F08050009000980420C4F2C0
:100530000100016862F31A61016002B070470000B7
:10054000002848BF704700F01F01012202FA01F1A4
:100550001C2202EAD0004EF20012CEF200028150BC
:100560007047000010B54EF60C5CCEF2000CDCF8C3
:100570000030C3F3022E8EF00704042C28BF04249D
:10058000BEF103034FF0FF3E0EFA04F438BF002320
:10059000A14399400EFA03F39A43114300F00F026E
:1005A00000F160430901043A03F564436244002802
:1005B00048BF02F10C03197010BD00004EF60C513B
:1005C000CEF200010A684FF6FF031A4060F30A22D8
:1005D00042F0806040F0FD7008607047002804BF62
:1005E000012070472DE9F04381B042F20008C4F2C7
:1005F00002080446D8F800000D4600F007008142CA
:100600000CD9D8F8000020F007002843C8F80000F3
:10061000D8F8000000F00700A8426CD1206841F231
:1006200004098107C4F2020917D5410705D5D9F895
:10063000001041F4E061C9F80010010705D5D9F8B0
:10064000001041F46051C9F80010D9F80010A268F8
:1006500021F0F0011143C9F80010C00742D1D8F8C9
:10066000000000F0070085420CD2D8F8000020F00E
:1006700007002843C8F80000D8F8000000F0070081
:10068000A84238D12068410707D5D9F80010E268A0
:1006900021F4E0611143C9F80010000708D5D9F82A
:1006A0000000216920F4605040EAC100C9F8000050
:1006B000D9F8002002F00C00082841F20020C0F216
:1006C0007A004DD142F62E33C2F38341C0F60003C7
:1006D000595CD20338D440F60010C0F23D004843C4
:1006E0003EE000BF606859F8041C022808D00128C9
:1006F00026D1890306D4012001B0BDE8F08300BFF4
:100700008901F8D5D9F8001021F003010843C9F890
:100710000000FFF7A7FE064641F28837D9F800002F
:10072000616800F00C00B0EB810F98D0FFF79AFEE3
:10073000801BB842F2D9032001B0BDE8F08300BFAE
:100740008907D8D5DEE700BFD9F8002042F61C3370
:10075000C2F34042C0F600039A5C4843B0FBF2F09B
:10076000D9F8001042F60C32C1F30311C0F60002B2
:10077000515C40F2080220FA01F140F20400C2F29A
:1007800000000068C2F200021160FFF793FE002033
:1007900001B0BDE8F0830000002804BF01207047CD
:1007A0002DE9F04182B00446007841F20006C0070E
:1007B000C4F202060CD0706800F00C00042840F06F
:1007C00081803068800303D56068002800F046818E
:1007D000207880071BD5706810F00C0F09D0706866
:1007E00000F00C00082840F087807068C00300F11A
:1007F00083803068800703D52069012840F02E816E
:100800003068616920F0F80040EAC100306020786B
:10081000000713D4207840072CD4E569002D00F0A0
:100820001881706800F00C00082840F0A780012DA6
:1008300040F00481012002B0BDE8F081A0690028E9
:1008400000F084800020C4F242200121C0F880140E
:10085000FFF708FE054600BF706A800700F1B2800E
:10086000FFF700FE401B0228F6D9032002B0BDE8C6
:10087000F08100BFF0695FEAC00808D4F06940F079
:100880008050F061F06900F080500090009847F2CD
:100890000007C4F200073868C00549D4386840F43E
:1008A00080703860FFF7DEFD054600BF3868C00580
:1008B0003ED4FFF7D7FD401B6428F7D9032002B0D0
:1008C000BDE8F081706800F00C00082803D1706862
:1008D000C0033FF576AF61683068002900F00C81F5
:1008E000B1F5A02F00F00081B1F5803F40F01A81F2
:1008F00040F480301CE100BF2069002840F2000075
:10090000C4F2422000F0888001210160FFF7AAFDB7
:10091000054600BF306880073FF572AFFFF7A2FDC4
:10092000401B0228F6D9032002B0BDE8F08100BFC9
:10093000E168306A002900F09D80052900F092806E
:10094000012940F0AF8040F00100B1E00020C4F286
:1009500042200021C0F88014FFF784FD054600BF47
:10096000706A80077FF556AFFFF77CFD401B0228B9
:10097000F6D9032002B0BDE8F08100BF0027C4F221
:10098000422700203866FFF76DFD022D05460DD188
:100990003068800140F1DE80FFF764FD401B0228D3
:1009A0004FF00300F4D902B0BDE8F0813068800157
:1009B0004FD5FFF757FD401B02284FF00300F5D934
:1009C000F1E700BF40F20800C2F20000006844F600
:1009D000D351C1F26201A0FB0101480A019000BF9E
:1009E00000BF0198411E002801913FF413AF00BFE2
:1009F0000198411E002801913FF40CAF00BF0198FF
:100A0000411E002801913FF405AF00BF0198411E2F
:100A100000280191E4D1FDE600210160FFF722FDED
:100A2000054600BF306880077FF5F1AEFFF71AFD7D
:100A3000401B02284FF00300F4D9B4E77068216A24
:100A400000F480328A4209D1616A00F47010884251
:100A500004D1002002B0BDE8F08100BF012002B047
:100A6000BDE8F08140F004003062306A40F00100DF
:100A70001EE000BF20F001003062306A20F0040068
:100A80003062FFF7EFFC054641F28837306A800795
:100A900020D5FFF7E7FC401BB8424FF00300F5D923
:100AA00081E700BF20F001003062306A20F00400CE
:100AB0003062FFF7D7FC054641F28837306A80077D
:100AC00008D4FFF7CFFC401BB842F7D9032002B08F
:100AD000BDE8F081B8F1000F3FF59FAEF06920F05E
:100AE0008050F06199E600BF40F4802030603068AB
:100AF00040F480301CE000BF20F48030306030686B
:100B000020F480203060FFF7ADFC0546306880039C
:100B10007FF55EAEFFF7A6FC401B64284FF0030094
:100B2000F4D940E720F480303060306820F4802031
:100B30003060FFF797FC0546306880033FF548AE0C
:100B4000FFF790FC401B6428F6D9032002B0BDE8F3
:100B5000F08100BF206AB0F5803F05D17168A268BE
:100B600021F40031114371607168626A21F47411DB
:100B700011430843706001203866FFF773FC044698
:100B8000306880013FF565AFFFF76CFC001B022861
:100B90004FF00300F4D906E770B528B1416A29B1D6
:100BA00000210161142106E0012070BD4168B1F50A
:100BB000827F02D01C21002242500026866290F8DB
:100BC000511029B980F85060054600F039F82846E0
:100BD000022180F8511090E82E0002F482720C6815
:100BE00003F4044324F040040C601A4405F4006349
:100BF00005691A4405F0020345691A4405F001032A
:100C00008569C4691A4405F400731A4404F0380372
:100C1000046A1A4404F08003846A1A4304F40053FB
:100C20001A430A60042202EA15424A60CA6922F4A1
:100C30000062CA610121466580F85110304670BDDE
:100C400080B586B0016843F60040C4F200008142DE
:100C50004FF00001CDE90411CDE9021102D006B038
:100C600080BD00BF41F21801C4F202014A6800F5DC
:100C7000504042F400424A604A6802F40042019245
:100C8000019A0A6842F008020A60096801F0080146
:100C900001910199282102910221039103210591DB
:100CA00002A9FFF7E5FA06B080BD00002DE9F0418A
:100CB00082B01D4616460F460446FFF7D3FB94F854
:100CC000511001290ED18046002F4FF0010018BFAE
:100CD000002E03D102B0BDE8F08100BF94F85000AF
:100CE000012803D1022002B0BDE8F081012084F880
:100CF00050000320002184F8510061652763A68617
:100D0000E686A163A187E187A0682164B0F5004F62
:100D10002068616407D1016821F040010160016829
:100D200041F4804101600168490603D4016841F043
:100D3000400101606168731EE268B1FA81F1B3FAA3
:100D400083F349095B09B2F5006F41EA030139D128
:100D500031B137F8021BC1602763E08E0138E086AD
:100D6000E08E002870D0681C0BD11AE0216B31F89E
:100D7000022BC2602163E08E0138E086E08E0028FD
:100D800062D0206881688907F0D4FFF76BFBA0EB85
:100D90000800A842F2D338E0FFF764FBE08E002899
:100DA00052D0206881688907F6D5216B31F8022B73
:100DB000C2602163E08E0138E086E08E0028F0D129
:100DC00042E000BF39B139780173206B01302063F4
:100DD000E08E0138E086E08EB0B3681C0BD123E0D2
:100DE000216B09780173206B01302063E08E01389C
:100DF000E086E08E40B3206881688907F0D4FFF771
:100E000031FBA0EB0800A842F3D3012084F8510085
:100E1000002084F85000032002B0BDE8F08100BF3C
:100E2000FFF720FBE08E78B1206881688907F7D54D
:100E3000216B09780173206B01302063E08E01384B
:100E4000E086E08E0028EFD12046022101222B46C9
:100E5000CDF8008001F016FA40B92046802100222A
:100E60002B46CDF8008001F00DFA28B1606D40F0FE
:100E70002000606520206065A06838B900200190DE
:100E80002068C1680191806801900198012084F870
:100E90005100002084F85000606D002818BF012028
:100EA00002B0BDE8F0810000411E0020B0EB116FE0
:100EB0001CBF012070474EF21002CEF200025160BA
:100EC0004EF62351CEF20001F0230B700721906003
:100ED00011607047704700007047000090F83C2098
:100EE000012A4FF0020242D010B580F83D2002687E
:100EF000D2F804E0D2F808C00C682EF07003234347
:100F000040F6FF34C4F20004A242536010DCB2F198
:100F1000804F1FD040F20043C4F200039A4219D020
:100F200040F60003C4F200039A4213D017E000BF5A
:100F300040F60043C4F200039A420BD043F2004350
:100F4000C4F201039A4205D042F60043C4F2010301
:100F50009A4204D149682CF0800319439160012121
:100F6000002280F83D1080F83C20BDE8104010467B
:100F700070470000002804BF0120704710B50446E8
:100F800090F83D0028B9002084F83C00204600F08D
:100F90001FF8022084F83D002068211D01F00EFAA0
:100FA000012084F8460084F83E0084F83F0084F86D
:100FB000400084F8410084F8420084F8430084F83B
:100FC000440084F8450084F83D00002010BD000076
:100FD0000068B0F1804F18BF704780B582B041F211
:100FE0001C00C4F202000168002241F0010101600E
:100FF0000068002100F00100019001981C20FFF71B
:10100000B1FA1C2002B0BDE88040FFF799BA000099
:1010100090F83D1001291CBF01207047022180F883
:101020003D10006840F6FF32C168C4F200029042F1
:1010300041F00101C1600FDCB0F1804F1ED040F2E1
:101040000041C4F20001884218D040F60001C4F209
:101050000001884212D018E040F60041C4F20001BD
:1010600088420BD043F20041C4F20101884205D00E
:1010700042F60041C4F20101884206D1816801F0C4
:101080000701062904BF00207047016841F00101F3
:10109000016000207047000090F83C20012A4FF0CA
:1010A00002026CD080B580F83D20D0F800C04FF629
:1010B0007772DCF8083023EA0202CCF808200B68CB
:1010C0004F2B29DC1F2B45DD202B46D0302B44D065
:1010D000402B40F0AF80D1F804E0C968DCF8203044
:1010E000DCF8202022F00102CCF82020DCF81820C7
:1010F00022F0F00242EA011123F00A0242EA0E0253
:10110000CCF81810CCF82020DCF8081041F047018A
:1011100021F0300128E000BF6F2B33DDB3F5005F15
:1011200074D0B3F5805F21D0702B40F08380D1E97B
:1011300001E3C968DCF8082043EA0E0322F47F4289
:1011400043EA01211143CCF80810DCF8081041F003
:10115000770109E00BB1102B6CD1DCF8081021F0FD
:101160007001194341F00701CCF808100022012159
:1011700080F83D10002180F83C10BDE8804010460A
:10118000704700BF502B21D0602B53D1D1F804E021
:10119000C968DCF82030DCF8202022F01002CCF8FE
:1011A0002020DCF8182022F4704242EA013123F0BA
:1011B000A00242EA0E12CCF81810CCF82020DCF87D
:1011C000081041F0670121F01001CDE7D1F804E0EB
:1011D000C968DCF82030DCF8202022F00102CCF8CD
:1011E0002020DCF8182022F0F00242EA011123F05E
:1011F0000A0242EA0E02CCF81810CCF82020DCF8E3
:10120000081041F0570121F02001ADE7D1E901E3D9
:10121000C968DCF8082043EA0E0322F47F4243EA5F
:1012200001211143CCF80810DCF8081041F480418A
:101230009AE700BF01229AE77047000070B50446A4
:101240000068C5680669B10716D515F0020113D00C
:101250006FF002010161012121778069800703D0CD
:101260002046FFF7E9FF05E0204600F08FF8204612
:1012700000F08EF800202077700719D515F00400D3
:1012800016D020686FF00401016102212177806986
:1012900010F4407F04D02046FFF7CEFF06E000BFE9
:1012A000204600F073F8204600F072F80020207706
:1012B000300717D515F0080014D020686FF008012A
:1012C000016104212177C069800703D02046FFF720
:1012D000B3FF05E0204600F059F8204600F058F82A
:1012E00000202077F00619D515F0100016D02068E0
:1012F0006FF01001016108212177C06910F4407F6F
:1013000004D02046FFF798FF06E000BF204600F01B
:101310003DF8204600F03CF800202077F00718BF89
:1013200015F0010002D1300609D412E020686FF0F8
:1013300001010161204600F02DF8300609D515F0B5
:10134000800006D020686FF0800101612046FFF721
:10135000C1FD700609D515F0400006D020686FF079
:1013600040010161204600F025F8B00658BF70BD6D
:1013700015F0200008D021686FF0200220460A6195
:10138000BDE87040FFF7A8BD70BD000070470000C9
:10139000704700000068B0F1804F18BF704740F2FE
:1013A0001000C2F200000078012808BFFEF700BF5D
:1013B0007047000070470000FEE70000F0B585B000
:1013C000002641F21800CDE90366CDE90166C4F2BA
:1013D0000200016840F6004441F02001016001680C
:1013E000C4F2010401F0200100910099016800227B
:1013F00041F01001016001684FF4887701F010019D
:1014000000910099016841F004010160016801F058
:10141000040100910099016841F008010160006831
:101420004FF4887100F00800009000982046FFF704
:1014300013F8062001900020C1F2210001ADCDE992
:10144000020604F580602946FEF712FF0120CDE96F
:10145000020602200490204629460197FEF708FF65
:10146000072002210022FFF77DF80720FFF768F828
:10147000082001210022FFF775F80820FFF760F827
:1014800005B0F0BD80B540F2180043F6004CC2F242
:101490000000C4F2000C4FF482724FF400430021AC
:1014A0004FF4007EC0E900C20A22C0E90231C0E95F
:1014B0000411C0E906E1C0E90811C0E90A12FFF70A
:1014C0006BFB002808BF80BDBDE88040FEF798BEDA
:1014D00080B586B040F270000021C2F200004FF0EB
:1014E000804241F61F4342F20F7C0591CDE9031182
:1014F000CDE90011C0E90023C0E9021C016181614E
:10150000FFF738FD002818BFFEF77AFE4FF4805031
:10151000029040F27000C2F2000002A9FFF7BCFD89
:10152000002818BFFEF76CFE40F27000C2F2000007
:101530006946FFF7D3FC002818BFFEF761FE06B02E
:1015400080BD0000FEE70000FEE700002DE9F04F3F
:101550008BB0092A00F27A81082B00F0D780052B86
:1015600040F0748142F63E33C2EBC202C0F6000383
:1015700003EB0208421CC31C4FFA82FE821C4FFA86
:1015800083FA041D40F2B8034FFA82FC62B2C2F241
:10159000000300254FF0070B03EBC2090A9200E09D
:1015A00002354C19E6B23F2E56D8ABEBD6072BEAE4
:1015B000040618F905400122C34602FA06F6B4F102
:1015C000FF3FFFB20BDC42B2002A08D440F2B8025F
:1015D000C2F2000202EBC002D35D3343D3555FFA7F
:1015E00084F85FEA48620BD5BEF1000F08D440F2E0
:1015F000B802C2F2000202EBCE02D35D3343D355F0
:101600005FEA88620BD5BCF1000F08D440F2B80243
:10161000C2F2000202EBCC02D35D3343D3555FEA42
:10162000C8620BD5BAF1000F08D440F2B802C2F27A
:10163000000202EBCA02D35D3343D3555FEA08725E
:10164000D8464FF0070B07D50A9A002A04D419F898
:101650000720324309F80720062D00F0F7806A1CA6
:101660008C18E6B23F2E9BD82BEA040308EB050446
:1016700094F90140ABEBD60201269E40B4F1FF3F46
:10168000D7B20BDC42B2002A08D440F2B802C2F250
:10169000000202EBC002D35D3343D355E4B26206CD
:1016A0000BD5BEF1000F08D440F2B802C2F200021E
:1016B00002EBCE02D35D3343D355A2060BD5BCF16A
:1016C000000F08D440F2B802C2F2000202EBCC02D2
:1016D000D35D3343D355E2060BD5BAF1000F08D4DE
:1016E00040F2B802C2F2000202EBCA02D35D3343F9
:1016F000D35522077FF554AF0A9A002A3FF550AF21
:1017000019F80720324309F8072049E742F68433E5
:10171000C0F6000303EB02120A92421C4FFA82F851
:10172000821C4FFA82FEC21C56B2021D53B2421DE9
:1017300054B2821D55B2C21D57B240F2B802C2F275
:101740000002039702EBC707029702EBC507019758
:1017500002EBC407069302EBC30302EBC60CCDF801
:1017600020E002EBCE0ECDF8248002EBC80802EB9D
:10177000C0094FF0000A4FF0070B0495059400973D
:10178000079604E00AF1010ABAF1100F5ED001EBEE
:101790000A02D6B23F2EF5D8ABEBD6050A9E2BEA4D
:1017A000020216F90A60012404FA02F7B6F1FF3FBB
:1017B000EAB207DC45B2002D04D419F802503D43CB
:1017C00009F80250F6B2750607D5099D002D04D41C
:1017D00018F802503D4308F80250B50607D5089D99
:1017E000002D04D41EF802503D430EF80250F506B9
:1017F00007D5079D002D04D41CF802503D430CF87A
:101800000250350705D5069D002D02D49D5C3D4351
:101810009D54750706D5059D002D03D4009CA55C3D
:101820003D43A554B50706D5049D002D03D4019C66
:10183000A55C3D43A554F507A4D0039D002DA1D47C
:10184000029EB55C3D43B5549CE700BF0BB0BDE8BC
:10185000F08F00002DE9F04F83B09046CD2208FBB9
:1018600002F34FEAD32A0AEB8A03A8EB430302935D
:1018700001FB02F34FEAD32B0BEB8B03A1EB4301EC
:10188000019100FB02F1CA0A02EB820140F2B809A1
:10189000A0EB41070020C2F2000903E0023030282B
:1018A00000F08C80030609EBC00103D5002BF5D4B2
:1018B00042E000BFCE7906F07F06CE71CE7906F009
:1018C000BF06CE71CE7906F0DF06CE71CE7906F076
:1018D000EF06CE71CE7906F0F706CE71CE7906F01E
:1018E000FB06CE71CE7906F0FD06CE71CE7906F0FC
:1018F000FE06CE718E7906F07F068E718E7906F027
:10190000BF068E718E7906F0DF068E718E7906F035
:10191000EF068E718E7906F0F7068E718E7906F0DD
:10192000FB068E718E7906F0FD068E718E7906F0BB
:10193000FE068E71002BB1D4CB7B03F07F03CB73FB
:10194000CB7B03F0BF03CB73CB7B03F0DF03CB7305
:10195000CB7B03F0EF03CB73CB7B03F0F703CB73AD
:10196000CB7B03F0FB03CB73CB7B03F0FD03CB738B
:10197000CB7B03F0FE03CB738B7B03F07F038B7376
:101980008B7B03F0BF038B738B7B03F0DF038B73C5
:101990008B7B03F0EF038B738B7B03F0F7038B736D
:1019A0008B7B03F0FB038B738B7B03F0FD038B734B
:1019B0008B7B03F0FE038B7370E700BF00200021D8
:1019C00008230025FFF7C2FDFAB2082000210823F2
:1019D000FFF7BCFD42F61E324FF0070E0121C0F6A4
:1019E00000024FF0060C02E00235102D76D0EFB267
:1019F000AEEBD70405F00607565787F0070701FA44
:101A000007F7B6F1FF3FE4B224DDF6B270062BD43F
:101A1000B00632D4F00606D509EB040090F89830F1
:101A20003B4380F89830681C5419C3B294F90160A4
:101A3000AEEBD3032CEA000001FA00F7B6F1FF3F4A
:101A4000DCB225DDF6B270062CD4B00633D4F00635
:101A5000CAD53AE009EB040393F88000384383F8D1
:101A60008000F6B27006D3D509EB040090F88830F8
:101A70003B4380F88830B006CCD509EB040090F8E1
:101A800090303B4380F89030F006C5D4CBE700BFE0
:101A900009EB040090F880303B4380F88030F6B2C8
:101AA0007006D2D509EB040090F888303B4380F8EB
:101AB0008830B006CBD509EB040090F890303B435A
:101AC00080F89030F0067FF58FAF09EB040090F8B6
:101AD00098303B4380F8983086E700BF14200021FF
:101AE0005A460823FFF732FD01980021C2B21C209C
:101AF0000823FFF72BFD42F63E30B8F1630FC0F626
:101B0000000000F28C80CAEBCA014256B2F1FF3FDE
:101B1000D2B240F36982530600F16F82930600F15E
:101B20007582D306014400F17B82120700F18182A5
:101B300091F90120B2F1FF3FD2B240F38782530600
:101B400000F18D82930600F19382D30600F1998211
:101B5000120700F19F8291F90220B2F1FF3FD2B249
:101B600040F3A582530600F1AB82930600F1B182E7
:101B7000D30600F1B782120700F1BD8291F903206C
:101B8000B2F1FF3FD2B240F3C382530600F1C982E3
:101B9000930600F1CF82D30600F1D582120700F13F
:101BA000DB8291F90420B2F1FF3FD2B240F3E1822F
:101BB000530600F1E782930600F1ED82D30600F1AF
:101BC000F382120700F1F98291F90520B2F1FF3F8B
:101BD000D2B240F3FF82530600F10583930600F171
:101BE0000B83D30600F11183120700F1178391F9DB
:101BF0000610B1F1FF3FC9B240F31D834A0600F160
:101C000023838A0600F12983CA0600F12F8309077E
:101C100005D599F8461141F0010189F8461102995C
:101C2000C9B2C1EBC1028156B1F1FF3FC9B240F365
:101C300085804B0600F18B808B0600F19180CB06EE
:101C4000104400F19780090700F19D8090F9011080
:101C5000B1F1FF3FC9B240F3A3804A0600F1A98069
:101C60008A0600F1AF80CA0600F1B580090700F1CD
:101C7000BB8090F90210B1F1FF3FC9B240F3C180BF
:101C80004A0600F1C7808A0600F1CD80CA0600F13D
:101C9000D380090700F1D98090F90310B1F1FF3F1B
:101CA000C9B240F3DF804A0600F1E5808A0600F100
:101CB000EB80CA0600F1F180090700F1F78090F986
:101CC0000410B1F1FF3FC9B240F3FD804A0600F1B4
:101CD00003818A0600F10981CA0600F10F81090714
:101CE00000F1158190F90510B1F1FF3FC9B240F341
:101CF0001B814A0600F121818A0600F12781CA066C
:101D000000F12D81090700F1338190F90600B0F14F
:101D1000FF3FC0B240F33981410600F13F818106A7
:101D200000F14581C10600F14B81000700F15181AE
:101D300003B0BDE8F04F00F075BE00BF99F8563112
:101D400043F0400389F856314B067FF575AF99F89B
:101D50005E3143F0400389F85E318B067FF56FAF4B
:101D600099F8663143F0400389F86631CB06104498
:101D70007FF569AF99F86E2142F0400289F86E2133
:101D800009077FF563AF99F8761141F0400189F8B2
:101D9000761190F90110B1F1FF3FC9B23FF75DAF85
:101DA00099F8562142F0200289F856214A067FF51B
:101DB00057AF99F85E2142F0200289F85E218A0629
:101DC0007FF551AF99F8662142F0200289F866212B
:101DD000CA067FF54BAF99F86E2142F0200289F8D0
:101DE0006E2109077FF545AF99F8761141F0200182
:101DF00089F8761190F90210B1F1FF3FC9B23FF7AF
:101E00003FAF99F8562142F0100289F856214A0650
:101E10007FF539AF99F85E2142F0100289F85E2112
:101E20008A067FF533AF99F8662142F0100289F8EF
:101E30006621CA067FF52DAF99F86E2142F0100297
:101E400089F86E2109077FF527AF99F8761141F0DF
:101E5000100189F8761190F90310B1F1FF3FC9B272
:101E60003FF721AF99F8562142F0080289F8562130
:101E70004A067FF51BAF99F85E2142F0080289F807
:101E80005E218A067FF515AF99F8662142F00802B7
:101E900089F86621CA067FF50FAF99F86E2142F0E6
:101EA000080289F86E2109077FF509AF99F87611C4
:101EB00041F0080189F8761190F90410B1F1FF3F63
:101EC000C9B23FF703AF99F8562142F0040289F8EE
:101ED00056214A067FF5FDAE99F85E2142F00402D4
:101EE00089F85E218A067FF5F7AE99F8662142F0FF
:101EF000040289F86621CA067FF5F1AE99F86E21D1
:101F000042F0040289F86E2109077FF5EBAE99F8DB
:101F1000761141F0040189F8761190F90510B1F1BC
:101F2000FF3FC9B23FF7E5AE99F8562142F00202F1
:101F300089F856214A067FF5DFAE99F85E2142F016
:101F4000020289F85E218A067FF5D9AE99F86621EA
:101F500042F0020289F86621CA067FF5D3AE99F8ED
:101F60006E2142F0020289F86E2109077FF5CDAE9D
:101F700099F8761141F0020189F8761190F906007E
:101F8000B0F1FF3FC0B23FF7C7AE99F8561141F02C
:101F9000010189F8561141067FF5C1AE99F85E112D
:101FA00041F0010189F85E1181067FF5BBAE99F819
:101FB000661141F0010189F86611C1067FF5B5AEE1
:101FC00099F86E1141F0010189F86E1100077FF553
:101FD000AFAE99F8760140F0010089F8760103B0C0
:101FE000BDE8F04F00F01EBD99F8263143F04003E4
:101FF00089F8263153067FF591AD99F82E3143F0DB
:10200000400389F82E3193067FF58BAD99F8363170
:1020100043F0400389F83631D30601447FF585AD9E
:1020200099F83E3143F0400389F83E3112077FF5BD
:102030007FAD99F8462142F0400289F8462191F996
:102040000120B2F1FF3FD2B23FF779AD99F82631C6
:1020500043F0200389F8263153067FF573AD99F8D4
:102060002E3143F0200389F82E3193067FF56DADB4
:1020700099F8363143F0200389F83631D3067FF5DD
:1020800067AD99F83E3143F0200389F83E311207DD
:102090007FF561AD99F8462142F0200289F846218A
:1020A00091F90220B2F1FF3FD2B23FF75BAD99F850
:1020B000263143F0100389F8263153067FF555ADDC
:1020C00099F82E3143F0100389F82E3193067FF5ED
:1020D0004FAD99F8363143F0100389F83631D30605
:1020E0007FF549AD99F83E3143F0100389F83E3150
:1020F00012077FF543AD99F8462142F0100289F8A6
:10210000462191F90320B2F1FF3FD2B23FF73DAD36
:1021100099F8263143F0080389F8263153067FF5F4
:1021200037AD99F82E3143F0080389F82E31930624
:102130007FF531AD99F8363143F0080389F836312F
:10214000D3067FF52BAD99F83E3143F0080389F8AB
:102150003E3112077FF525AD99F8462142F008027D
:1021600089F8462191F90420B2F1FF3FD2B23FF73E
:102170001FAD99F8263143F0040389F82631530640
:102180007FF519AD99F82E3143F0040389F82E310B
:1021900093067FF513AD99F8363143F0040389F8BF
:1021A0003631D3067FF50DAD99F83E3143F0040387
:1021B00089F83E3112077FF507AD99F8462142F0C4
:1021C000040289F8462191F90520B2F1FF3FD2B20D
:1021D0003FF701AD99F8263143F0020389F8263123
:1021E00053067FF5FBAC99F82E3143F0020389F8D2
:1021F0002E3193067FF5F5AC99F8363143F00203A2
:1022000089F83631D3067FF5EFAC99F83E3143F0CB
:10221000020389F83E3112077FF5E9AC99F84621AF
:1022200042F0020289F8462191F90610B1F1FF3F10
:10223000C9B23FF7E3AC99F8262142F0010289F8D0
:1022400026214A067FF5DDAC99F82E2142F00102E5
:1022500089F82E218A067FF5D7AC99F8362142F00D
:10226000010289F83621CA067FF5D1AC99F83E21E2
:1022700042F0010289F83E2109073FF5CAACCEE4DD
:10228000704700002DE9F04381B0089C9846154640
:102290000E468146FEF7E6F8201A00EB0804FEF72A
:1022A000E1F840F20801C2F200010968C1F3CB3144
:1022B00061430091D9F800108A683240921BB2FA4B
:1022C00082F2520995423DD0074618F1010031D003
:1022D000FEF7C8F8C01BA04238D200980099002829
:1022E000A1F101010091D9F80010896808BF0446E6
:1022F00001EA0600801BB0FA80F040098542E7D170
:1023000020E000BF88683040801BB0FA80F04009B0
:10231000854217D088683040801BB0FA80F04009B1
:1023200085420FD088683040801BB0FA80F04009A9
:10233000854207D088683040801BB0FA80F04009A1
:102340008542DFD1002001B0BDE8F083D9E900016A
:102350004268B1F5827F22F0E00242600BD1D9F8E9
:102360000810B1F5004F02D0B1F5806F03D10168BC
:1023700021F040010160D9F82810B1F5005F07D1C4
:10238000016821F400510160016841F400510160CD
:10239000012089F85100002089F85000032001B085
:1023A000BDE8F08370470000FEF762B87047000098
:1023B00040F27000C2F20000FEF740BF10B540F6D8
:1023C000FF320368C4F2000240F6004E43F2004CB4
:1023D0009042C4F2000EC4F2010C21DCB0F1804F37
:1023E00028D040F20044C4F20004A04222D040F6BB
:1023F0000004C4F20004A0421CD0904220DCB0F1E2
:10240000804F27D040F20042C4F20002904221D017
:1024100040F60002C4F2000290421BD01EE000BF52
:10242000704507D0604505D042F60044C4F201046F
:10243000A042E2D14C6823F0700323439042DEDDDA
:10244000704507D0604505D042F60042C4F2010253
:10245000904203D1CA6823F4407313434C6923F0BC
:102460008002D1F800E08B68224360450260C362BD
:10247000C0F828E005D042F60042C4F201029042C2
:1024800001D109690163012141610169C90708BFDF
:1024900010BD016921F00101016110BDFEE70000DE
:1024A0002DE9F04F81B040F6004440F2B80640F20A
:1024B0001805C4F201044FF0000BC2F20006C2F28C
:1024C00000050DF1020A0DF103074FF0000800BFEF
:1024D00048F0B0008DF80000204610210022FDF7E2
:1024E000BBFF284669460122FF23FEF7DFFB0220DF
:1024F0008DF80100204610210022FDF7ADFF28468F
:102500000DF101010122FF23FEF7D0FB10208DF811
:102510000200204610210022FDF79EFF284651466A
:102520000122FF23FEF7C2FB6FF0070906EB09004B
:1025300080F808B0007A10218DF8030020460122AF
:10254000FDF78AFF284639460122FF23FEF7AEFB3E
:1025500009F10809B9F57E7FE8D108F10108B8F161
:10256000080F06F10106B3D101B0BDE8F08F0000FD
:1025700090B0FDF78BFF00240120CDE90B44CDE99D
:10258000094406900A904FF4E0104FF48031022580
:102590000F9006A8CDE90714CDE90D51FEF7FCF820
:1025A00020B1EFF3108072B6FEE700BF0F20CDE937
:1025B00001054FF48060CDE9040401A802210394D1
:1025C000FEF70CF820B1EFF3108072B6FEE700BF03
:1025D000FEF7F4FEFEF756FFFEF77AFF40F27000BA
:1025E000C2F20000FEF714FD00F04EF8FFF758FFAE
:1025F000FDF7D4FD40F2130440F2100640F2160835
:1026000040F2150940F2140AC2F200040125C2F298
:1026100000060027C2F20008C2F20009C2F2000A56
:102620004FF0020B257002E00120FDF7EFFDB078BE
:1026300020B1B7703770FDF7B1FD2570707878B1B3
:1026400077703078022819D0012807D0002804BFFD
:1026500035702570207830B9E6E700BF86F800B005
:1026600020780028E0D0277098F8000099F8001032
:102670009AF80020FFF7EEF8D6E700BF3570207813
:102680000028F0D1D0E700002DE9F04182B040F6FB
:102690000044C4F2010420464FF480710122FDF78A
:1026A000DBFE4FF47A70FDF7B1FD20464FF48071E8
:1026B00000220026FDF7D0FE4FF47A70FDF7A6FD4C
:1026C00020464FF480710122FDF7C6FE4FF47A7068
:1026D000FDF79CFDAE208DF807002046102100225A
:1026E0001027FDF7B9FE40F21805C2F200050DF102
:1026F000070128460122FF23FEF7D8FA20461021C1
:1027000000228DF80760FDF7A7FE0DF107012846AE
:102710000122FF23FEF7CAFA2046102100228DF87D
:102720000770FDF799FE0DF1070128460122FF23EE
:10273000FEF7BCFA40272046102100228DF80770D2
:10274000FDF78AFE0DF1070128460122FF23FEF75F
:10275000ADFA81208DF80700204610210022FDF7F8
:102760007BFE0DF1070128460122FF23FEF79EFAAA
:10277000CF208DF80700204610210022FDF76CFEC7
:102780000DF1070128460122FF23FEF78FFAA12051
:102790008DF80700204610210022FDF75DFE0DF1A7
:1027A000070128460122FF23FEF780FAC0208DF89A
:1027B0000700204610210022FDF74EFE0DF1070113
:1027C00028460122FF23FEF771FA4FF0A6082046A3
:1027D000102100228DF80780FDF73EFE0DF1070164
:1027E00028460122FF23FEF761FAA8208DF8070092
:1027F000204610210022FDF72FFE0DF1070128468B
:102800000122FF23FEF752FA3F208DF807002046F1
:1028100010210022FDF720FE0DF1070128460122BC
:10282000FF23FEF743FAD3208DF80700204610213E
:102830000022FDF711FE0DF1070128460122FF23BA
:10284000FEF734FA2046102100228DF80760FDF7CC
:1028500003FE0DF1070128460122FF23FEF726FAA9
:10286000D5208DF80700204610210022FDF7F4FD49
:102870000DF1070128460122FF23FEF717FA8020F9
:102880008DF80700204610210022FDF7E5FD0DF12F
:10289000070128460122FF23FEF708FAD9208DF808
:1028A0000700204610210022FDF7D6FD0DF107019B
:1028B00028460122FF23FEF7F9F9F1208DF80700E1
:1028C000204610210022FDF7C7FD0DF10701284623
:1028D0000122FF23FEF7EAF9DA208DF807002046EF
:1028E00010210022FDF7B8FD0DF107012846012255
:1028F000FF23FEF7DBF912208DF807002046102198
:102900000022FDF7A9FD0DF1070128460122FF2352
:10291000FEF7CCF9DB208DF80700204610210022BD
:10292000FDF79AFD0DF1070128460122FF23FEF76E
:10293000BDF92046102100228DF80770FDF78CFDAF
:102940000DF1070128460122FF23FEF7AFF92020F1
:102950008DF80700204610210022FDF77DFD0DF1C6
:10296000070128460122FF23FEF7A0F902208DF877
:102970000700204610210022FDF76EFD0DF1070132
:1029800028460122FF23FEF791F98D208DF80700DC
:10299000204610210022FDF75FFD0DF107012846BA
:1029A0000122FF23FEF782F914208DF8070020464C
:1029B00010210022FDF750FD0DF1070128460122EC
:1029C000FF23FEF773F9A4208DF80700204610219D
:1029D0000022FDF741FD0DF1070128460122FF23EA
:1029E000FEF764F92046102100228DF80780FDF7DC
:1029F00033FD0DF1070128460122FF23FEF756F9AA
:102A0000AF208DF80700204610210022FDF724FD9D
:102A10000DF1070128460122FF23FEF747F902B016
:102A2000BDE8F0812DE9F04F81B040F6004440F25E
:102A3000B80640F21805C4F201044FF0000BC2F2D0
:102A40000006C2F200050DF101090DF1020A0DF1B7
:102A5000030700BF4BF0B0008DF8000020461021A6
:102A60000022FDF7F9FC284669460122FF23FEF704
:102A70001DF902208DF80100204610210022FDF7EB
:102A8000EBFC284649460122FF23FEF70FF91020F0
:102A90008DF80200204610210022FDF7DDFC2846BB
:102AA00051460122FF23FEF701F96FF0070800BF2E
:102AB00006EB0800007A10218DF803002046012261
:102AC000FDF7CAFC284639460122FF23FEF7EEF83F
:102AD00008F10808B8F57E7FEAD10BF1010BBBF1D4
:102AE000080F06F10106B5D101B0BDE8F08F02E094
:102AF00008C8121F08C1002AFAD170477047002089
:102B000001E001C1121F002AFBD170470000000044
:102B1000000000000102030406070809010200008A
:102B20000000006868000068680000000000020300
:102B30000405060708090A0B0C0D0E0F101070880B
:102B40008888888870206020202020707088081075
:102B50002040F87088083008887010305090F810C5
:102B600010F880F0080888707080F088888870F805
:102B7000081020404040708888708888707088886D
:102B800078081060003C4242424242424242424285
:102B900042423C00000818280808080808080808ED
:102BA00008083E00003C4242020408102020404039
:102BB000407E7E00003C4202020C100C0202020227
:102BC00042423C0000040C142444447E7E0404046D
:102BD00004040400007E4040407C420202020202E3
:102BE00042423C00001C2240407C4242424242425F
:102BF00042423C00007E4202020404080810101009
:102C000010101000003C4242423C424242424242CA
:102C100042423C00003C424242423E020202020268
:102C200044443800482C0008000000201000000038
:102C3000EE2A0008582C000810000020B008000000
:102C4000FE2A000800000000010000001000000043
:082C500000127A0000000000F0
:0400000508000131BD
:00000001FF
